{"abi":[{"type":"function","name":"allPairs","inputs":[{"name":"","type":"uint256","internalType":"uint256"}],"outputs":[{"name":"","type":"address","internalType":"address"}],"stateMutability":"view"},{"type":"function","name":"allPairsLength","inputs":[],"outputs":[{"name":"","type":"uint256","internalType":"uint256"}],"stateMutability":"view"},{"type":"function","name":"createPair","inputs":[{"name":"tokenA","type":"address","internalType":"address"},{"name":"tokenB","type":"address","internalType":"address"}],"outputs":[{"name":"pair","type":"address","internalType":"address"}],"stateMutability":"nonpayable"},{"type":"function","name":"getPair","inputs":[{"name":"tokenA","type":"address","internalType":"address"},{"name":"tokenB","type":"address","internalType":"address"}],"outputs":[{"name":"pair","type":"address","internalType":"address"}],"stateMutability":"view"},{"type":"function","name":"pairs","inputs":[{"name":"","type":"address","internalType":"address"},{"name":"","type":"address","internalType":"address"}],"outputs":[{"name":"","type":"address","internalType":"address"}],"stateMutability":"view"},{"type":"event","name":"PairCreated","inputs":[{"name":"tokenA","type":"address","indexed":true,"internalType":"address"},{"name":"tokenB","type":"address","indexed":true,"internalType":"address"},{"name":"pair","type":"address","indexed":false,"internalType":"address"},{"name":"","type":"uint256","indexed":false,"internalType":"uint256"}],"anonymous":false}],"bytecode":{"object":"0x6080604052348015600e575f5ffd5b5061238f8061001c5f395ff3fe608060405234801561000f575f5ffd5b5060043610610055575f3560e01c80631e3dd18b14610059578063574f2ba31461008957806369454b861461009a578063c9c65396146100ca578063e6a43905146100dd575b5f5ffd5b61006c6100673660046104d6565b6100f0565b6040516001600160a01b0390911681526020015b60405180910390f35b600154604051908152602001610080565b61006c6100a8366004610508565b5f6020818152928152604080822090935290815220546001600160a01b031681565b61006c6100d8366004610508565b610118565b61006c6100eb366004610508565b610476565b600181815481106100ff575f80fd5b5f918252602090912001546001600160a01b0316905081565b5f816001600160a01b0316836001600160a01b03160361018b5760405162461bcd60e51b815260206004820152602360248201527f4d696e69414d4d466163746f72793a206964656e746963616c2061646472657360448201526273657360e81b60648201526084015b60405180910390fd5b6001600160a01b038316158015906101ab57506001600160a01b03821615155b6101f75760405162461bcd60e51b815260206004820152601c60248201527f4d696e69414d4d466163746f72793a207a65726f2061646472657373000000006044820152606401610182565b5f5f836001600160a01b0316856001600160a01b03161061021957838561021c565b84845b6001600160a01b038083165f90815260208181526040808320848616845290915290205492945090925016156102945760405162461bcd60e51b815260206004820152601b60248201527f4d696e69414d4d466163746f72793a20706169722065786973747300000000006044820152606401610182565b5f604051806020016102a5906104c9565b601f1982820381018352601f9091011660408181526001600160a01b03868116602084015285169082015260600160408051601f19818403018152908290526102f19291602001610550565b60408051601f19818403018152908290526bffffffffffffffffffffffff19606086811b8216602085015285901b16603483015291505f90604801604051602081830303815290604052805190602001209050808251602084015ff594506001600160a01b0385166103a55760405162461bcd60e51b815260206004820152601e60248201527f4d696e69414d4d466163746f72793a2063726561746532206661696c656400006044820152606401610182565b6001600160a01b038481165f8181526020818152604080832088861680855290835281842080546001600160a01b0319908116978d1697881790915584845282852086865284528285208054821688179055600180548082018255958190527fb10e2d527612073b26eecdfd717e6a320cf44b4afac2b0732d9fcbe2b7fa0cf6909501805490911687179055925481519586529185019190915290927f0d3648bd0f6ba80134a33ba9275ac585d9d315f0ad8355cddefde31afa28d0e9910160405180910390a35050505092915050565b5f5f5f836001600160a01b0316856001600160a01b03161061049957838561049c565b84845b6001600160a01b039182165f90815260208181526040808320938516835292905220541695945050505050565b611ded8061056d83390190565b5f602082840312156104e6575f5ffd5b5035919050565b80356001600160a01b0381168114610503575f5ffd5b919050565b5f5f60408385031215610519575f5ffd5b610522836104ed565b9150610530602084016104ed565b90509250929050565b5f81518060208401855e5f93019283525090919050565b5f61056461055e8386610539565b84610539565b94935050505056fe60806040525f5f555f6001555f60025534801561001a575f5ffd5b50604051611ded380380611ded8339810160408190526100399161012c565b600380546001600160a01b038085166001600160a01b03199283161790925560048054928416929091169190911790556040515f9061007790610104565b604051809103905ff080158015610090573d5f5f3e3d5ffd5b50600580546001600160a01b0319166001600160a01b038316908117909155604051637e51dad560e11b81523060048201529192509063fca3b5aa906024015f604051808303815f87803b1580156100e6575f5ffd5b505af11580156100f8573d5f5f3e3d5ffd5b5050505050505061015d565b610b1a806112d383390190565b80516001600160a01b0381168114610127575f5ffd5b919050565b5f5f6040838503121561013d575f5ffd5b61014683610111565b915061015460208401610111565b90509250929050565b6111698061016a5f395ff3fe608060405234801561000f575f5ffd5b50600436106100e5575f3560e01c8063b4f40c6111610088578063d73792a911610063578063d73792a9146101ba578063d96073cf146101c3578063ee39e7a0146101d6578063fc4b6b50146101dd575f5ffd5b8063b4f40c611461018e578063b7d19fc414610196578063c9e57aa6146101a9575f5ffd5b8063768aebde116100c3578063768aebde1461014757806399839d661461015d5780639c8f9f23146101665780639cd441da1461017b575f5ffd5b80630902f1ac146100e957806316dc165b146101095780635fcbd28514610134575b5f5ffd5b600154600254604080519283526020830191909152015b60405180910390f35b60035461011c906001600160a01b031681565b6040516001600160a01b039091168152602001610100565b60055461011c906001600160a01b031681565b61014f600381565b604051908152602001610100565b61014f60015481565b610179610174366004610fa2565b6101e6565b005b610179610189366004610fb9565b6105dc565b61014f5f5481565b60045461011c906001600160a01b031681565b6005546001600160a01b031661011c565b61014f6103e881565b6101796101d1366004610fb9565b6105fc565b5f5461014f565b61014f60025481565b5f81116102495760405162461bcd60e51b815260206004820152602660248201527f4d696e69414d4d3a20616d6f756e74206d75737420626520677265617465722060448201526507468616e20360d41b60648201526084015b60405180910390fd5b6005546040516370a0823160e01b815233600482015282916001600160a01b0316906370a0823190602401602060405180830381865afa15801561028f573d5f5f3e3d5ffd5b505050506040513d601f19601f820116820180604052508101906102b39190610fd9565b10156103105760405162461bcd60e51b815260206004820152602660248201527f4d696e69414d4d3a20696e73756666696369656e74204c5020746f6b656e2062604482015265616c616e636560d01b6064820152608401610240565b600554604080516318160ddd60e01b815290515f926001600160a01b0316916318160ddd9160048083019260209291908290030181865afa158015610357573d5f5f3e3d5ffd5b505050506040513d601f19601f8201168201806040525081019061037b9190610fd9565b90505f816001548461038d9190611004565b6103979190611021565b90505f82600254856103a99190611004565b6103b39190611021565b90505f821180156103c357505f81115b61040f5760405162461bcd60e51b815260206004820152601f60248201527f4d696e69414d4d3a20696e73756666696369656e74206c6971756964697479006044820152606401610240565b600554604051632770a7eb60e21b8152336004820152602481018690526001600160a01b0390911690639dc29fac906044015f604051808303815f87803b158015610458575f5ffd5b505af115801561046a573d5f5f3e3d5ffd5b505060035460405163a9059cbb60e01b8152336004820152602481018690526001600160a01b03909116925063a9059cbb91506044016020604051808303815f875af11580156104bc573d5f5f3e3d5ffd5b505050506040513d601f19601f820116820180604052508101906104e09190611040565b506004805460405163a9059cbb60e01b81523392810192909252602482018390526001600160a01b03169063a9059cbb906044016020604051808303815f875af1158015610530573d5f5f3e3d5ffd5b505050506040513d601f19601f820116820180604052508101906105549190611040565b508160015f828254610566919061105f565b925050819055508060025f82825461057e919061105f565b90915550506002546001546105939190611004565b5f5560408051858152602081018490529081018290527f462ff1f90b66e3549a190bb471a2276749250543bad2ce9c21f706d882a59dad9060600160405180910390a150505050565b5f545f036105f2576105ee82826106c8565b5050565b6105ee82826108ad565b5f82118015610609575080155b8061061c57508115801561061c57505f81115b6106685760405162461bcd60e51b815260206004820152601d60248201527f4d696e69414d4d3a20696e76616c6964207377617020616d6f756e74730000006044820152606401610240565b5f5f54116106b05760405162461bcd60e51b81526020600482015260156024820152744d696e69414d4d3a206e6f206c697175696469747960581b6044820152606401610240565b81156106bf576105ee82610baa565b6105ee81610d75565b5f821180156106d657505f81115b6106f25760405162461bcd60e51b815260040161024090611072565b6003546040516323b872dd60e01b81526001600160a01b03909116906323b872dd90610726903390309087906004016110b9565b6020604051808303815f875af1158015610742573d5f5f3e3d5ffd5b505050506040513d601f19601f820116820180604052508101906107669190611040565b50600480546040516323b872dd60e01b81526001600160a01b03909116916323b872dd9161079a91339130918791016110b9565b6020604051808303815f875af11580156107b6573d5f5f3e3d5ffd5b505050506040513d601f19601f820116820180604052508101906107da9190611040565b50600182905560028190556107ef8183611004565b5f9081556108056108008385611004565b610f3e565b6005546040516340c10f1960e01b8152336004820152602481018390529192506001600160a01b0316906340c10f19906044015f604051808303815f87803b15801561084f575f5ffd5b505af1158015610861573d5f5f3e3d5ffd5b505060408051868152602081018690529081018490527ff75993dbe1645872cbbea6395e1feebee76b435baf0e4d62d7eac269c6f57b24925060600190505b60405180910390a1505050565b5f821180156108bb57505f81115b6108d75760405162461bcd60e51b815260040161024090611072565b5f600154600254846108e99190611004565b6108f39190611021565b9050808210156109455760405162461bcd60e51b815260206004820152601e60248201527f4d696e69414d4d3a20696e73756666696369656e74207920616d6f756e7400006044820152606401610240565b6003546040516323b872dd60e01b81526001600160a01b03909116906323b872dd90610979903390309088906004016110b9565b6020604051808303815f875af1158015610995573d5f5f3e3d5ffd5b505050506040513d601f19601f820116820180604052508101906109b99190611040565b50600480546040516323b872dd60e01b81526001600160a01b03909116916323b872dd916109ed91339130918891016110b9565b6020604051808303815f875af1158015610a09573d5f5f3e3d5ffd5b505050506040513d601f19601f82011682018060405250810190610a2d9190611040565b508260015f828254610a3f91906110dd565b925050819055508160025f828254610a5791906110dd565b9091555050600254600154610a6c9190611004565b5f908155600554604080516318160ddd60e01b815290516001600160a01b03909216916318160ddd916004808201926020929091908290030181865afa158015610ab8573d5f5f3e3d5ffd5b505050506040513d601f19601f82011682018060405250810190610adc9190610fd9565b90505f84600154610aed919061105f565b610af78387611004565b610b019190611021565b6005546040516340c10f1960e01b8152336004820152602481018390529192506001600160a01b0316906340c10f19906044015f604051808303815f87803b158015610b4b575f5ffd5b505af1158015610b5d573d5f5f3e3d5ffd5b505060408051888152602081018890529081018490527ff75993dbe1645872cbbea6395e1feebee76b435baf0e4d62d7eac269c6f57b249250606001905060405180910390a15050505050565b5f6103e8610bb960038261105f565b610bc39084611004565b610bcd9190611021565b90505f81600154610bde91906110dd565b82600254610bec9190611004565b610bf69190611021565b90505f8111610c175760405162461bcd60e51b8152600401610240906110f0565b6003546040516323b872dd60e01b81526001600160a01b03909116906323b872dd90610c4b903390309088906004016110b9565b6020604051808303815f875af1158015610c67573d5f5f3e3d5ffd5b505050506040513d601f19601f82011682018060405250810190610c8b9190611040565b506004805460405163a9059cbb60e01b81523392810192909252602482018390526001600160a01b03169063a9059cbb906044016020604051808303815f875af1158015610cdb573d5f5f3e3d5ffd5b505050506040513d601f19601f82011682018060405250810190610cff9190611040565b508260015f828254610d1191906110dd565b925050819055508060025f828254610d29919061105f565b9091555050604080518481525f6020820181905291810191909152606081018290527f298c349c742327269dc8de6ad66687767310c948ea309df826f5bd103e19d207906080016108a0565b5f6103e8610d8460038261105f565b610d8e9084611004565b610d989190611021565b90505f81600254610da991906110dd565b82600154610db79190611004565b610dc19190611021565b90505f8111610de25760405162461bcd60e51b8152600401610240906110f0565b600480546040516323b872dd60e01b81526001600160a01b03909116916323b872dd91610e1591339130918991016110b9565b6020604051808303815f875af1158015610e31573d5f5f3e3d5ffd5b505050506040513d601f19601f82011682018060405250810190610e559190611040565b5060035460405163a9059cbb60e01b8152336004820152602481018390526001600160a01b039091169063a9059cbb906044016020604051808303815f875af1158015610ea4573d5f5f3e3d5ffd5b505050506040513d601f19601f82011682018060405250810190610ec89190611040565b508260025f828254610eda91906110dd565b925050819055508060015f828254610ef2919061105f565b9091555050604080515f8082526020820186905291810183905260608101919091527f298c349c742327269dc8de6ad66687767310c948ea309df826f5bd103e19d207906080016108a0565b5f815f03610f4d57505f919050565b5f6002610f5b8460016110dd565b610f659190611021565b9050825b80821015610f9b575080600281610f808187611021565b610f8a91906110dd565b610f949190611021565b9150610f69565b9392505050565b5f60208284031215610fb2575f5ffd5b5035919050565b5f5f60408385031215610fca575f5ffd5b50508035926020909101359150565b5f60208284031215610fe9575f5ffd5b5051919050565b634e487b7160e01b5f52601160045260245ffd5b808202811582820484141761101b5761101b610ff0565b92915050565b5f8261103b57634e487b7160e01b5f52601260045260245ffd5b500490565b5f60208284031215611050575f5ffd5b81518015158114610f9b575f5ffd5b8181038181111561101b5761101b610ff0565b60208082526027908201527f4d696e69414d4d3a20616d6f756e7473206d75737420626520677265617465726040820152660207468616e20360cc1b606082015260800190565b6001600160a01b039384168152919092166020820152604081019190915260600190565b8082018082111561101b5761101b610ff0565b60208082526023908201527f4d696e69414d4d3a20696e73756666696369656e74206f757470757420616d6f6040820152621d5b9d60ea1b60608201526080019056fea2646970667358221220f6a8f73d21f2ffa1dcb756100cdad32ad6dc47f347e1ad9f814df6467d7e16a864736f6c634300081e0033608060405234801561000f575f5ffd5b506040518060400160405280601081526020016f26b4b734a0a6a6902628102a37b5b2b760811b8152506040518060400160405280600381526020016204d4c560ec1b81525081600390816100649190610123565b5060046100718282610123565b5050600580546001600160a01b03191633179055506101dd565b634e487b7160e01b5f52604160045260245ffd5b600181811c908216806100b357607f821691505b6020821081036100d157634e487b7160e01b5f52602260045260245ffd5b50919050565b601f82111561011e57805f5260205f20601f840160051c810160208510156100fc5750805b601f840160051c820191505b8181101561011b575f8155600101610108565b50505b505050565b81516001600160401b0381111561013c5761013c61008b565b6101508161014a845461009f565b846100d7565b6020601f821160018114610182575f831561016b5750848201515b5f19600385901b1c1916600184901b17845561011b565b5f84815260208120601f198516915b828110156101b15787850151825560209485019460019092019101610191565b50848210156101ce57868401515f19600387901b60f8161c191681555b50505050600190811b01905550565b610930806101ea5f395ff3fe608060405234801561000f575f5ffd5b50600436106100cb575f3560e01c806340c10f19116100885780639dc29fac116100635780639dc29fac146101b4578063a9059cbb146101c7578063dd62ed3e146101da578063fca3b5aa14610212575f5ffd5b806340c10f191461016f57806370a082311461018457806395d89b41146101ac575f5ffd5b806306fdde03146100cf57806307546172146100ed578063095ea7b31461011857806318160ddd1461013b57806323b872dd1461014d578063313ce56714610160575b5f5ffd5b6100d7610225565b6040516100e4919061075d565b60405180910390f35b600554610100906001600160a01b031681565b6040516001600160a01b0390911681526020016100e4565b61012b6101263660046107ad565b6102b5565b60405190151581526020016100e4565b6002545b6040519081526020016100e4565b61012b61015b3660046107d5565b6102ce565b604051601281526020016100e4565b61018261017d3660046107ad565b6102f1565b005b61013f61019236600461080f565b6001600160a01b03165f9081526020819052604090205490565b6100d7610332565b6101826101c23660046107ad565b610341565b61012b6101d53660046107ad565b610375565b61013f6101e836600461082f565b6001600160a01b039182165f90815260016020908152604080832093909416825291909152205490565b61018261022036600461080f565b610382565b60606003805461023490610860565b80601f016020809104026020016040519081016040528092919081815260200182805461026090610860565b80156102ab5780601f10610282576101008083540402835291602001916102ab565b820191905f5260205f20905b81548152906001019060200180831161028e57829003601f168201915b5050505050905090565b5f336102c2818585610412565b60019150505b92915050565b5f336102db858285610424565b6102e68585856104a0565b506001949350505050565b6005546001600160a01b031633146103245760405162461bcd60e51b815260040161031b90610898565b60405180910390fd5b61032e82826104fd565b5050565b60606004805461023490610860565b6005546001600160a01b0316331461036b5760405162461bcd60e51b815260040161031b90610898565b61032e8282610531565b5f336102c28185856104a0565b6005546001600160a01b031633146103f05760405162461bcd60e51b815260206004820152602b60248201527f4d696e69414d4d4c503a2063616c6c6572206973206e6f74207468652063757260448201526a3932b73a1036b4b73a32b960a91b606482015260840161031b565b600580546001600160a01b0319166001600160a01b0392909216919091179055565b61041f8383836001610565565b505050565b6001600160a01b038381165f908152600160209081526040808320938616835292905220545f1981101561049a578181101561048c57604051637dc7a0d960e11b81526001600160a01b0384166004820152602481018290526044810183905260640161031b565b61049a84848484035f610565565b50505050565b6001600160a01b0383166104c957604051634b637e8f60e11b81525f600482015260240161031b565b6001600160a01b0382166104f25760405163ec442f0560e01b81525f600482015260240161031b565b61041f838383610637565b6001600160a01b0382166105265760405163ec442f0560e01b81525f600482015260240161031b565b61032e5f8383610637565b6001600160a01b03821661055a57604051634b637e8f60e11b81525f600482015260240161031b565b61032e825f83610637565b6001600160a01b03841661058e5760405163e602df0560e01b81525f600482015260240161031b565b6001600160a01b0383166105b757604051634a1406b160e11b81525f600482015260240161031b565b6001600160a01b038085165f908152600160209081526040808320938716835292905220829055801561049a57826001600160a01b0316846001600160a01b03167f8c5be1e5ebec7d5bd14f71427d1e84f3dd0314c0f7b2291e5b200ac8c7c3b9258460405161062991815260200190565b60405180910390a350505050565b6001600160a01b038316610661578060025f82825461065691906108db565b909155506106d19050565b6001600160a01b0383165f90815260208190526040902054818110156106b35760405163391434e360e21b81526001600160a01b0385166004820152602481018290526044810183905260640161031b565b6001600160a01b0384165f9081526020819052604090209082900390555b6001600160a01b0382166106ed5760028054829003905561070b565b6001600160a01b0382165f9081526020819052604090208054820190555b816001600160a01b0316836001600160a01b03167fddf252ad1be2c89b69c2b068fc378daa952ba7f163c4a11628f55a4df523b3ef8360405161075091815260200190565b60405180910390a3505050565b602081525f82518060208401528060208501604085015e5f604082850101526040601f19601f83011684010191505092915050565b80356001600160a01b03811681146107a8575f5ffd5b919050565b5f5f604083850312156107be575f5ffd5b6107c783610792565b946020939093013593505050565b5f5f5f606084860312156107e7575f5ffd5b6107f084610792565b92506107fe60208501610792565b929592945050506040919091013590565b5f6020828403121561081f575f5ffd5b61082882610792565b9392505050565b5f5f60408385031215610840575f5ffd5b61084983610792565b915061085760208401610792565b90509250929050565b600181811c9082168061087457607f821691505b60208210810361089257634e487b7160e01b5f52602260045260245ffd5b50919050565b60208082526023908201527f4d696e69414d4d4c503a2063616c6c6572206973206e6f7420746865206d696e6040820152623a32b960e91b606082015260800190565b808201808211156102c857634e487b7160e01b5f52601160045260245ffdfea26469706673582212207d7efce5e8bb75f44f588cfae823920b1481d131503d6d4d1b3ec04ed362595864736f6c634300081e0033a26469706673582212209fc78310c1cc71dd5606f0586b2275cdc0e1a11b71c23965dfde6adb62f5719c64736f6c634300081e0033","linkReferences":{}},"methodIdentifiers":{"allPairs(uint256)":"1e3dd18b","allPairsLength()":"574f2ba3","createPair(address,address)":"c9c65396","getPair(address,address)":"e6a43905","pairs(address,address)":"69454b86"},"id":29}