{"abi":[{"type":"constructor","inputs":[{"name":"name_","type":"string","internalType":"string"},{"name":"symbol_","type":"string","internalType":"string"}],"stateMutability":"nonpayable"},{"type":"function","name":"allowance","inputs":[{"name":"owner","type":"address","internalType":"address"},{"name":"spender","type":"address","internalType":"address"}],"outputs":[{"name":"","type":"uint256","internalType":"uint256"}],"stateMutability":"view"},{"type":"function","name":"approve","inputs":[{"name":"spender","type":"address","internalType":"address"},{"name":"value","type":"uint256","internalType":"uint256"}],"outputs":[{"name":"","type":"bool","internalType":"bool"}],"stateMutability":"nonpayable"},{"type":"function","name":"balanceOf","inputs":[{"name":"account","type":"address","internalType":"address"}],"outputs":[{"name":"","type":"uint256","internalType":"uint256"}],"stateMutability":"view"},{"type":"function","name":"decimals","inputs":[],"outputs":[{"name":"","type":"uint8","internalType":"uint8"}],"stateMutability":"view"},{"type":"function","name":"freeMintTo","inputs":[{"name":"amount","type":"uint256","internalType":"uint256"},{"name":"to","type":"address","internalType":"address"}],"outputs":[],"stateMutability":"nonpayable"},{"type":"function","name":"freeMintToSender","inputs":[{"name":"amount","type":"uint256","internalType":"uint256"}],"outputs":[],"stateMutability":"nonpayable"},{"type":"function","name":"name","inputs":[],"outputs":[{"name":"","type":"string","internalType":"string"}],"stateMutability":"view"},{"type":"function","name":"symbol","inputs":[],"outputs":[{"name":"","type":"string","internalType":"string"}],"stateMutability":"view"},{"type":"function","name":"totalSupply","inputs":[],"outputs":[{"name":"","type":"uint256","internalType":"uint256"}],"stateMutability":"view"},{"type":"function","name":"transfer","inputs":[{"name":"to","type":"address","internalType":"address"},{"name":"value","type":"uint256","internalType":"uint256"}],"outputs":[{"name":"","type":"bool","internalType":"bool"}],"stateMutability":"nonpayable"},{"type":"function","name":"transferFrom","inputs":[{"name":"from","type":"address","internalType":"address"},{"name":"to","type":"address","internalType":"address"},{"name":"value","type":"uint256","internalType":"uint256"}],"outputs":[{"name":"","type":"bool","internalType":"bool"}],"stateMutability":"nonpayable"},{"type":"event","name":"Approval","inputs":[{"name":"owner","type":"address","indexed":true,"internalType":"address"},{"name":"spender","type":"address","indexed":true,"internalType":"address"},{"name":"value","type":"uint256","indexed":false,"internalType":"uint256"}],"anonymous":false},{"type":"event","name":"Transfer","inputs":[{"name":"from","type":"address","indexed":true,"internalType":"address"},{"name":"to","type":"address","indexed":true,"internalType":"address"},{"name":"value","type":"uint256","indexed":false,"internalType":"uint256"}],"anonymous":false},{"type":"error","name":"ERC20InsufficientAllowance","inputs":[{"name":"spender","type":"address","internalType":"address"},{"name":"allowance","type":"uint256","internalType":"uint256"},{"name":"needed","type":"uint256","internalType":"uint256"}]},{"type":"error","name":"ERC20InsufficientBalance","inputs":[{"name":"sender","type":"address","internalType":"address"},{"name":"balance","type":"uint256","internalType":"uint256"},{"name":"needed","type":"uint256","internalType":"uint256"}]},{"type":"error","name":"ERC20InvalidApprover","inputs":[{"name":"approver","type":"address","internalType":"address"}]},{"type":"error","name":"ERC20InvalidReceiver","inputs":[{"name":"receiver","type":"address","internalType":"address"}]},{"type":"error","name":"ERC20InvalidSender","inputs":[{"name":"sender","type":"address","internalType":"address"}]},{"type":"error","name":"ERC20InvalidSpender","inputs":[{"name":"spender","type":"address","internalType":"address"}]}],"bytecode":{"object":"0x608060405234801561000f575f5ffd5b50604051610a49380380610a4983398101604081905261002e916100f0565b8181600361003c83826101d9565b50600461004982826101d9565b5050505050610293565b634e487b7160e01b5f52604160045260245ffd5b5f82601f830112610076575f5ffd5b81516001600160401b0381111561008f5761008f610053565b604051601f8201601f19908116603f011681016001600160401b03811182821017156100bd576100bd610053565b6040528181528382016020018510156100d4575f5ffd5b8160208501602083015e5f918101602001919091529392505050565b5f5f60408385031215610101575f5ffd5b82516001600160401b03811115610116575f5ffd5b61012285828601610067565b602085015190935090506001600160401b0381111561013f575f5ffd5b61014b85828601610067565b9150509250929050565b600181811c9082168061016957607f821691505b60208210810361018757634e487b7160e01b5f52602260045260245ffd5b50919050565b601f8211156101d457805f5260205f20601f840160051c810160208510156101b25750805b601f840160051c820191505b818110156101d1575f81556001016101be565b50505b505050565b81516001600160401b038111156101f2576101f2610053565b610206816102008454610155565b8461018d565b6020601f821160018114610238575f83156102215750848201515b5f19600385901b1c1916600184901b1784556101d1565b5f84815260208120601f198516915b828110156102675787850151825560209485019460019092019101610247565b508482101561028457868401515f19600387901b60f8161c191681555b50505050600190811b01905550565b6107a9806102a05f395ff3fe608060405234801561000f575f5ffd5b50600436106100a6575f3560e01c8063313ce5671161006e578063313ce5671461012557806370a082311461013457806395d89b411461015c578063a9059cbb14610164578063b2684ed514610177578063dd62ed3e1461018a575f5ffd5b806306fdde03146100aa578063095ea7b3146100c85780630b1f5ef3146100eb57806318160ddd1461010057806323b872dd14610112575b5f5ffd5b6100b26101c2565b6040516100bf91906105e1565b60405180910390f35b6100db6100d6366004610631565b610252565b60405190151581526020016100bf565b6100fe6100f9366004610659565b61026b565b005b6002545b6040519081526020016100bf565b6100db610120366004610683565b610279565b604051601281526020016100bf565b6101046101423660046106bd565b6001600160a01b03165f9081526020819052604090205490565b6100b261029c565b6100db610172366004610631565b6102ab565b6100fe6101853660046106dd565b6102b8565b6101046101983660046106f4565b6001600160a01b039182165f90815260016020908152604080832093909416825291909152205490565b6060600380546101d19061071c565b80601f01602080910402602001604051908101604052809291908181526020018280546101fd9061071c565b80156102485780601f1061021f57610100808354040283529160200191610248565b820191905f5260205f20905b81548152906001019060200180831161022b57829003601f168201915b5050505050905090565b5f3361025f8185856102c5565b60019150505b92915050565b61027581836102d7565b5050565b5f33610286858285610310565b61029185858561038c565b506001949350505050565b6060600480546101d19061071c565b5f3361025f81858561038c565b6102c233826102d7565b50565b6102d283838360016103e9565b505050565b6001600160a01b0382166103055760405163ec442f0560e01b81525f60048201526024015b60405180910390fd5b6102755f83836104bb565b6001600160a01b038381165f908152600160209081526040808320938616835292905220545f19811015610386578181101561037857604051637dc7a0d960e11b81526001600160a01b038416600482015260248101829052604481018390526064016102fc565b61038684848484035f6103e9565b50505050565b6001600160a01b0383166103b557604051634b637e8f60e11b81525f60048201526024016102fc565b6001600160a01b0382166103de5760405163ec442f0560e01b81525f60048201526024016102fc565b6102d28383836104bb565b6001600160a01b0384166104125760405163e602df0560e01b81525f60048201526024016102fc565b6001600160a01b03831661043b57604051634a1406b160e11b81525f60048201526024016102fc565b6001600160a01b038085165f908152600160209081526040808320938716835292905220829055801561038657826001600160a01b0316846001600160a01b03167f8c5be1e5ebec7d5bd14f71427d1e84f3dd0314c0f7b2291e5b200ac8c7c3b925846040516104ad91815260200190565b60405180910390a350505050565b6001600160a01b0383166104e5578060025f8282546104da9190610754565b909155506105559050565b6001600160a01b0383165f90815260208190526040902054818110156105375760405163391434e360e21b81526001600160a01b038516600482015260248101829052604481018390526064016102fc565b6001600160a01b0384165f9081526020819052604090209082900390555b6001600160a01b0382166105715760028054829003905561058f565b6001600160a01b0382165f9081526020819052604090208054820190555b816001600160a01b0316836001600160a01b03167fddf252ad1be2c89b69c2b068fc378daa952ba7f163c4a11628f55a4df523b3ef836040516105d491815260200190565b60405180910390a3505050565b602081525f82518060208401528060208501604085015e5f604082850101526040601f19601f83011684010191505092915050565b80356001600160a01b038116811461062c575f5ffd5b919050565b5f5f60408385031215610642575f5ffd5b61064b83610616565b946020939093013593505050565b5f5f6040838503121561066a575f5ffd5b8235915061067a60208401610616565b90509250929050565b5f5f5f60608486031215610695575f5ffd5b61069e84610616565b92506106ac60208501610616565b929592945050506040919091013590565b5f602082840312156106cd575f5ffd5b6106d682610616565b9392505050565b5f602082840312156106ed575f5ffd5b5035919050565b5f5f60408385031215610705575f5ffd5b61070e83610616565b915061067a60208401610616565b600181811c9082168061073057607f821691505b60208210810361074e57634e487b7160e01b5f52602260045260245ffd5b50919050565b8082018082111561026557634e487b7160e01b5f52601160045260245ffdfea2646970667358221220f72a7a94f5c8ae8532e794791d63f9dea6be21580bee5d2d74ac78ab0425477f64736f6c634300081e0033","linkReferences":{}},"methodIdentifiers":{"allowance(address,address)":"dd62ed3e","approve(address,uint256)":"095ea7b3","balanceOf(address)":"70a08231","decimals()":"313ce567","freeMintTo(uint256,address)":"0b1f5ef3","freeMintToSender(uint256)":"b2684ed5","name()":"06fdde03","symbol()":"95d89b41","totalSupply()":"18160ddd","transfer(address,uint256)":"a9059cbb","transferFrom(address,address,uint256)":"23b872dd"},"id":31}